:100000000C9434000C943E000C943E000C943E0082
:100010000C943E000C943E000C943E000C943E0068
:100020000C943E000C943E000C943E000C943E0058
:100030000C943E000C943E000C943E000C943E0048
:100040000C943E000C943E000C943E000C943E0038
:100050000C943E000C943E000C943E000C943E0028
:100060000C943E000C943E0011241FBECFEFD8E04C
:10007000DEBFCDBF0E945D000C94E2000C94000036
:10008000A0E8B0E08C9182608C93E1E8F0E08081A0
:10009000886180838C9180688C9380818460808368
:1000A00083E294EF909387008093860089E698E13D
:1000B00090938900809388000895219A8AB18B7E5D
:1000C0008AB98BB184618BB90E944000809186000F
:1000D000909187006AE070E00E94CE00E091860077
:1000E000F091870029B122FB222720F981E02827FF
:1000F00089B180E090E039B1A1E0432F447032FD36
:10010000A0E039B13071411122C0211120C02FEF80
:1001100041EE54E0215040405040E1F700C0000063
:1001200040918800509189004759574EE417F507D0
:1001300018F48A30910550F440918800509189005C
:100140004759574E509389004093880001963323B6
:1001500011F02A2FD0CF2FEF31EE44E02150304064
:100160004040E1F700C000002091880030918900F4
:100170006217730768F4009759F020918800309156
:10018000890029563841309389002093880004C0A3
:1001900070938900609388000197DBCFAA1BBB1B7B
:1001A00051E107C0AA1FBB1FA617B70710F0A61B77
:1001B000B70B881F991F5A95A9F780959095BC0198
:0801C000CD010895F894FFCF72
:00000001FF
