:100000000C9434000C943E000C943E000C943E0082
:100010000C943E000C943E000C943E000C943E0068
:100020000C943E000C943E000C943E000C943E0058
:100030000C943E000C943E000C943E000C943E0048
:100040000C943E000C943E000C943E000C943E0038
:100050000C943E000C943E000C943E000C943E0028
:100060000C943E000C943E0011241FBECFEFD8E04C
:10007000DEBFCDBF0E9440000C945A000C940000DB
:10008000209A52985A9A80E021E091E04A9B03C05E
:1000900090E0892FFACF8111FCCF85B1822785B9F5
:1000A0003FEF40E782E0315040408040E1F700C040
:0800B0000000EFCFF894FFCF30
:00000001FF
