:100000000C9434000C943E000C943E000C943E0082
:100010000C943E000C943E000C943E000C943E0068
:100020000C943E000C943E000C943E000C943E0058
:100030000C943E000C943E000C943E000C943E0048
:100040000C943E000C943E000C943E000C943E0038
:100050000C943E000C943E000C943E000C943E0028
:100060000C943E000C943E0011241FBECFEFD8E04C
:10007000DEBFCDBF0E9440000C9480000C940000B5
:10008000559A539A569A5D9A2FEF83ED90E321503B
:1000900080409040E1F700C000005D982FEF80E7BE
:1000A00092E0215080409040E1F700C000005E9A4D
:1000B0002FEF83ED90E3215080409040E1F700C0A6
:1000C00000005E982FEF80E792E021508040904042
:1000D000E1F700C000005B9A2FEF83ED90E3215021
:1000E00080409040E1F700C000005B982FEF80E770
:1000F00092E0215080409040E1F700C00000C3CF63
:04010000F894FFCFA1
:00000001FF
