:100000000C9434000C943E000C943E000C943E0082
:100010000C943E000C943E000C943E000C943E0068
:100020000C943E000C943E000C943E000C943E0058
:100030000C943E000C943E000C943E000C943E0048
:100040000C943E000C943E000C943E000C943E0038
:100050000C943E000C943E000C943E000C943E0028
:100060000C943E000C943E0011241FBECFEFD8E04C
:10007000DEBFCDBF0E9476000C9498000C94000067
:1000800084B1876184B9089552985A9A54985C9AB9
:10009000089595B1987E282F2770922B8870880F2D
:1000A000892B85B90895482F29B130E002C03595D4
:1000B00027958A95E2F720FD17C02FEF80E792E0A1
:1000C000215080409040E1F700C0000099B1892F95
:1000D00090E002C0959587954A95E2F7817099273F
:1000E00021E082278170089580E008950E944000F9
:1000F0000E94440080E00E944900C0E082E00E942B
:100100005300882341F0CF3008F4CF5F8C2F0E943A
:1001100049004A9BFECF84E00E945300882371F37C
:10012000C111C1508C2F0E9449004C9BFECFE6CFDD
:04013000F894FFCF71
:00000001FF
